:020000040000FA
:100000000C9462000C9466030C943F030C948A00D9
:100010000C948A000C948A000C948A000C94E503DA
:100020000C948A000C948A000C948A000C94690445
:100030000C948A000C948A000C948A000C948A0018
:100040000C94F5020C948A000C94B3030C948D0369
:100050000C948A000C948A000C948A000C948A00F8
:100060000C948A000C948A000000000023002600F3
:10007000290000000008000201000003040700003E
:1000800000000000000000000000250028002B00F8
:1000900000000000240027002A00040404040404D3
:1000A0000404020202020202030303030303010227
:1000B00004081020408001020408102001020408F6
:1000C0001020690711241FBECFEFD8E0DEBFCDBFDF
:1000D00011E0A0E0B1E0E8E7F4E102C005900D9284
:1000E000A438B107D9F722E0A4E8B1E001C01D921D
:1000F000AB34B207E1F710E0C2E6D0E004C02197CC
:10010000FE010E94340AC136D107C9F70E94C90412
:100110000C943A0A0C9400003FB7F8948091AA011D
:100120009091AB01A091AC01B091AD0126B5A89B17
:1001300005C02F3F19F00196A11DB11D3FBFBA2F79
:10014000A92F982F8827BC01CD01620F711D811D39
:10015000911D42E0660F771F881F991F4A95D1F7BE
:1001600008950895AF92BF92CF92DF92EF92FF92DF
:100170000F931F93CF93DF936C017B018B01040FCF
:10018000151FEB015E01AE18BF08C017D10759F06B
:100190006991D601ED91FC910190F081E02DC601AD
:1001A0000995892B79F7C501DF91CF911F910F91A7
:1001B000FF90EF90DF90CF90BF90AF900895FC013B
:1001C000538D448D252F30E0842F90E0821B930BBC
:1001D000541710F0CF96089501970895FC01918D62
:1001E000828D981761F0A28DAE0FBF2FB11D5D9665
:1001F0008C91928D9F5F9F73928F90E008958FEF07
:100200009FEF0895FC01918D828D981731F0828DBA
:10021000E80FF11D858D90E008958FEF9FEF089511
:10022000FC01918D228D892F90E0805C9F4F821B75
:1002300091098F73992708958EEA91E00E94100129
:1002400021E0892B09F420E0822F089580E090E0DE
:10025000892B29F00E941C0181110C940000089543
:10026000FC01A48DA80FB92FB11DA35ABF4F2C912B
:10027000848D90E001968F739927848FA689B78922
:100280002C93A089B1898C91837080648C93938D19
:10029000848D981306C00288F389E02D80818F7DBC
:1002A00080830895EF92FF920F931F93CF93DF9374
:1002B000EC0181E0888F9B8D8C8D98131AC0E889A2
:1002C000F989808185FF15C09FB7F894EE89FF8971
:1002D0006083E889F98980818370806480839FBF0F
:1002E00081E090E0DF91CF911F910F91FF90EF900F
:1002F0000895F62E0B8D10E00F5F1F4F0F7311271F
:10030000E02E8C8D8E110CC00FB607FCFACFE88959
:10031000F989808185FFF5CFCE010E943001F1CFB0
:10032000EB8DEC0FFD2FF11DE35AFF4FF0829FB7CD
:10033000F8940B8FEA89FB8980818062CFCFCF93BD
:10034000DF93EC01888D8823B9F0AA89BB89E889FD
:10035000F9898C9185FD03C0808186FD0DC00FB6A3
:1003600007FCF7CF8C9185FFF2CF808185FFEDCF21
:10037000CE010E943001E9CFDF91CF9108958091A5
:10038000960183B1817080939301809193018823BA
:1003900079F10E948C0060938701709388018093AB
:1003A000890190938A018091870190918801A091A1
:1003B0008901B0918A0140918B0150918C0160912B
:1003C0008D0170918E01841B950BA60BB70B80934A
:1003D000A1019093A201A093A301B093A4018091E5
:1003E00092018093840110929201109291010895DC
:1003F0000E948C0060938B0170938C0180938D011F
:1004000090938E0180918B0190918C01A0918D0130
:10041000B0918E01409187015091880160918901CE
:1004200070918A01841B950BA60BB70B80939D01DD
:1004300090939E01A0939F01B093A00180919001A1
:10044000809386011092900110928F01809191010A
:10045000809385010895CF92DF92EF92FF920F93E0
:100460001F93CF93DF9388E08BB982E085B98BE748
:100470009EE3FC013197F1F720E12BB924E025B987
:100480000197F1F78AE090E04AE750E066EB70E010
:10049000A2EAB0E010E104E0D8E0FD2E22E0E22E76
:1004A0002BEC37E0FA01C491FB01D491FD01D4900B
:1004B000DD2009F446C0CC2339F0C33059F100F5F2
:1004C000C13071F1C23081F1ED2DF0E0EE0FFF1F70
:1004D000E859FF4FC590D490F601C081DC2389F123
:1004E000FBB8E5B8F9013197F1F70197D9F6DF913B
:1004F000CF911F910F91FF90EF90DF90CF900895D3
:10050000C730A9F0C830C9F0C430F1F6F0918000CE
:10051000FF7D03C0F0918000FF77F0938000D4CF7F
:10052000F4B5FF77F4BDD0CFF4B5FF7DFBCFF091EC
:10053000B000FF77F093B000C7CFF091B000FF7D1F
:10054000F9CF1BB905B9CECFFC0101900020E9F726
:100550003197AF01481B590BBC018EEA91E00C9416
:10056000B2008F929F92AF92BF920F931F93CF933F
:10057000DF93CDB7DEB7A1970FB6F894DEBF0FBEFD
:10058000CDBF19A2423008F44AE08E010F5D1F4F23
:10059000842E912CB12CA12CA50194010E94C0079E
:1005A000E62FB901CA01EA30F4F4E05DD801EE9318
:1005B0008D01232B242B252B79F790E080E01097D9
:1005C00019F0CD010E94A402A1960FB6F894DEBFE7
:1005D0000FBECDBFDF91CF911F910F91BF90AF9014
:1005E0009F908F900895E95CE1CF1F920F920FB614
:1005F0000F9211242F933F938F939F93AF93BF93A9
:100600008091A6019091A701A091A801B091A901A4
:100610003091A50123E0230F2D3758F50196A11D38
:10062000B11D2093A5018093A6019093A701A093EB
:10063000A801B093A9018091AA019091AB01A0916A
:10064000AC01B091AD010196A11DB11D8093AA012D
:100650009093AB01A093AC01B093AD01BF91AF916A
:100660009F918F913F912F910F900FBE0F901F90F0
:10067000189526E8230F0296A11DB11DD2CF1F9217
:100680000F920FB60F9211242F933F934F935F93C6
:100690006F937F938F939F93AF93BF93EF93FF934A
:1006A000E0910201F09103010995FF91EF91BF9153
:1006B000AF919F918F917F916F915F914F913F91FA
:1006C0002F910F900FBE0F901F9018951F920F92B1
:1006D0000FB60F9211242F933F934F935F936F9315
:1006E0007F938F939F93AF93BF93EF93FF93E0918B
:1006F0000001F09101010995FF91EF91BF91AF9138
:100700009F918F917F916F915F914F913F912F9129
:100710000F900FBE0F901F9018951F920F920FB65B
:100720000F9211242F933F934F935F936F937F9377
:100730008F939F93AF93BF93EF93FF938EEA91E0D4
:100740000E943001FF91EF91BF91AF919F918F91E6
:100750007F916F915F914F913F912F910F900FBEBD
:100760000F901F9018951F920F920FB60F921124A1
:100770002F938F939F93EF93FF93E091BE01F0919E
:10078000BF018081E091C401F091C50182FD1BC0D1
:1007900090818091C7018F5F8F732091C80182176C
:1007A00041F0E091C701F0E0E255FE4F958F809354
:1007B000C701FF91EF919F918F912F910F900FBEE5
:1007C0000F901F9018958081F4CF1F920F920FB653
:1007D0000F9211242F933F934F935F936F937F93C7
:1007E0008F939F93AF93BF93EF93FF931092B200B9
:1007F000809194018F5F80939401893108F458C0EF
:1008000010929401E09195012091990130919A0103
:1008100040919B0150919C0188E0E89FF0011124D8
:10082000E05EFE4F64817581868197810E945E083B
:1008300087FF05C0809195018F5F80939501E091BE
:1008400095012091990130919A0140919B0150911D
:100850009C0188E0E89FF0011124E05EFE4F60817A
:100860007181828193810E94BD0918162CF48091B8
:100870009501815080939501E0919501F0E0E75F4B
:10088000FE4F808180939801E0919501F0E0EC5F4C
:10089000FE4F808180939701E0919501F0E0EC5F3D
:1008A000FE4F81E09081911101C080E0809396011C
:1008B000FF91EF91BF91AF919F918F917F916F9138
:1008C0005F914F913F912F910F900FBE0F901F900E
:1008D00018951F920F920FB60F9211248F939F932A
:1008E000109285001092840080919301882361F119
:1008F0009091920180919801981700F18091910157
:10090000811102C01BB815B8809191018F5F80934F
:10091000910180919601882351F0909191018091ED
:100920009701981304C088E08BB982E085B99F9144
:100930008F910F900FBE0F901F901895809192018C
:100940008F5F80939201E5CF909190018091980103
:100950009817C8F080918F01811102C01BB815B89B
:1009600080918F018F5F80938F0180919601882302
:10097000F1F290918F01809197019813D8CF80E187
:100980008BB984E0D3CF809190018F5F80939001E9
:10099000ECCF789484B5826084BD84B5816084BDD9
:1009A00085B5826085BD85B5816085BD80916E000D
:1009B000816080936E00109281008091810082603E
:1009C000809381008091810081608093810080917B
:1009D00080008160809380008091B100846080936A
:1009E000B1008091B00081608093B00080917A0066
:1009F000846080937A0080917A00826080937A008C
:100A000080917A00816080937A0080917A0080687A
:100A100080937A001092C100E091BE01F091BF0175
:100A200082E08083E091BA01F091BB011082E091F5
:100A3000BC01F091BD0180E180831092C601E0917C
:100A4000C201F091C30186E08083E091C001F09182
:100A5000C101808180618083E091C001F091C1017A
:100A6000808188608083E091C001F091C101808124
:100A700080688083E091C001F091C10180818F7D09
:100A80008083E6EBF0E02491E2EAF0E084918823B1
:100A9000C1F090E0880F991FFC01E057FF4FC5910E
:100AA000D491FC01EA57FF4FA591B4919FB7F894F8
:100AB0008881E22FE0958E2388838C91E823EC9344
:100AC0009FBF8CE18AB91BB88EE084B915B8F89441
:100AD0001092800010928100109285001092840084
:100AE0008091810082608093810080916F0082609C
:100AF00080936F008CE090E0909389008093880051
:100B00001092B0001092B1008091B1008560809386
:100B1000B100809170008260809370008DE98093B5
:100B2000B30080E591E00E94A40288E491E00E9475
:100B3000A4020E942B028BE491E00E94A40288E4AC
:100B400091E00E94A4021092950184E6809398019E
:100B50001092970110929601789418E002E080E1DB
:100B6000B82E94E0A92EC0E0D0E09924939460912F
:100B7000A1017091A2018091A3019091A401C09064
:100B80009D01D0909E01E0909F01F090A0016C0D1E
:100B90007D1D8E1D9F1D0E940B096B017C0120E0B5
:100BA00030E0A9010E945E08882309F4CFC0A701A4
:100BB000960160EC71EE84E69CE40E946308609309
:100BC000990170939A0180939B0190939C018EEA06
:100BD00091E00E941001892B61F08EEA91E00E9461
:100BE000EE00813609F0B6C0809198018F5F809346
:100BF000980180909501E091950188E0E89FF001CF
:100C00001124E05EFE4F60817181828193810E9498
:100C1000D5082B013C016091990170919A01809156
:100C20009B0190919C010E94D5089B01AC01241965
:100C3000350946095709ACEDB0E00E94B5076B01D4
:100C40007C0188E0889EF0011124E05EFE4F648103
:100C50007581868197810E94D5089B01AC0124197A
:100C6000350946095709C701B6010E94960769016F
:100C70007A0183E2C80ED11CE11CF11C8C2D833259
:100C800008F483E2282F30E0309389002093880015
:100C900030938B0020938A008093B30086E591E027
:100CA0000E94A4020D2C000CEE08FF084AE0C701C8
:100CB000B601F7FE0DC06DE28EEA91E00E9452018E
:100CC00066277727CB016C197D098E099F094AE0B9
:100CD0000E94B1028DE591E00E94A40280E691E0BD
:100CE0000E94A402C0909901D0909A01E0909B01CB
:100CF000F0909C01A7019601C701B6010E942F0A3E
:100D0000882309F454C089E691E00E94A40285E793
:100D100091E00E94A4028AE791E00E94A4026091FF
:100D2000950170E090E080E04AE00E94B10288E422
:100D300091E00E94A402209709F419CF0E941C019F
:100D4000882309F414CF0E94000011CF60E070E006
:100D5000CB0135CF8A3721F480919801815047CF5C
:100D6000873731F4809197018F5F8093970141CF4E
:100D7000813721F4809197018150F7CF853619F49E
:100D80009092960136CF833711F4F89432CF8335A1
:100D900019F40E942B022DCF863419F4BBB8A5B8E4
:100DA00028CF823509F025CF1BB905B922CF2601FE
:100DB0003701E89477F82FEF3FEF4FE75FE7C30184
:100DC000B2010E942F0A81110DC02FEF3FEF4FE7B4
:100DD0005FE7C301B2010E945E0818161CF48DE69D
:100DE00091E093CF2FEF3FEF4FE75FE4C701B601EC
:100DF0000E94BD0918161CF481E791E086CF2FEF01
:100E00003FEF4FE75FECC701B6010E945E0887FD28
:100E1000F3CF20E030E0A901C701B6010E945E08CF
:100E200087FF09C06DE28EEA91E00E945201F7FA55
:100E3000F094F7F8F0942AE037ED43EA5BE3C7015A
:100E4000B6010E94F2072B013C010E94DC086B01F5
:100E50007C010E940B099B01AC01C301B2010E94FD
:100E6000F1072B013C014AE0C701B6010E94B10223
:100E70006EE28EEA91E00E94520120E030E040E212
:100E800051E4C301B2010E94C2092B013C010E943E
:100E9000DC086B01F12CE12C4AE0C701B6010E948D
:100EA000B102C701B6010E940B099B01AC01C3014D
:100EB000B2010E94F10720E030E040E251E40E94DC
:100EC000C2090E94DC0890E080E04AE00E94B10282
:100ED0001ECFEEEAF1E01382128288EE93E0A0E0EA
:100EE000B0E084839583A683B78382E191E0918308
:100EF000808385EC90E09587848784EC90E09787E9
:100F0000868780EC90E0918B808B81EC90E0938BD6
:100F1000828B82EC90E0958B848B86EC90E0978BB3
:100F2000868B118E128E138E148E0895052E97FBCC
:100F30001EF400940E94AD0757FD07D00E94C00721
:100F400007FC03D04EF40C94AD07509540953095B6
:100F500021953F4F4F4F5F4F089590958095709525
:100F600061957F4F8F4F9F4F08950E94E207A59F85
:100F7000900DB49F900DA49F800D911D1124089594
:100F8000A1E21A2EAA1BBB1BFD010DC0AA1FBB1F8D
:100F9000EE1FFF1FA217B307E407F50720F0A21BFF
:100FA000B30BE40BF50B661F771F881F991F1A946C
:100FB00069F760957095809590959B01AC01BD0196
:100FC000CF010895A29FB001B39FC001A39F700DF0
:100FD000811D1124911DB29F700D811D1124911D41
:100FE00008955058BB27AA270E9409080C9483092A
:100FF0000E94750938F00E947C0920F039F49F3F67
:1010000019F426F40C9472090EF4E095E7FB0C94A5
:101010006C09E92F0E94940958F3BA176207730705
:101020008407950720F079F4A6F50C94B6090EF420
:10103000E0950B2EBA2FA02D0B01B90190010C01E8
:10104000CA01A0011124FF27591B99F0593F50F400
:10105000503E68F11A16F040A22F232F342F442758
:10106000585FF3CF469537952795A795F040539550
:10107000C9F77EF41F16BA0B620B730B840BBAF020
:101080009150A1F0FF0FBB1F661F771F881FC2F78B
:101090000EC0BA0F621F731F841F48F4879577959F
:1010A0006795B795F7959E3F08F0B0CF9395880F59
:1010B00008F09927EE0F9795879508950E944809A3
:1010C00008F481E008950E9477080C9483090E9437
:1010D0007C0958F00E94750940F029F45F3F29F01F
:1010E0000C946C0951110C94B7090C9472090E946C
:1010F000940968F39923B1F3552391F3951B550B8C
:10110000BB27AA2762177307840738F09F5F5F4FDA
:10111000220F331F441FAA1FA9F335D00E2E3AF019
:10112000E0E832D091505040E695001CCAF72BD031
:10113000FE2F29D0660F771F881FBB1F2617370782
:101140004807AB07B0E809F0BB0B802DBF01FF27B4
:1011500093585F4F3AF09E3F510578F00C946C091C
:101160000C94B7095F3FE4F3983ED4F386957795E6
:101170006795B795F7959F5FC9F7880F911D96956D
:10118000879597F90895E1E0660F771F881FBB1FC9
:10119000621773078407BA0720F0621B730B840B76
:1011A000BA0BEE1F88F7E09508950E94DC0868945A
:1011B000B1110C94B70908950E949C0988F09F57BB
:1011C00098F0B92F9927B751B0F0E1F0660F771F6B
:1011D000881F991F1AF0BA95C9F714C0B13091F061
:1011E0000E94B609B1E008950C94B609672F782FD4
:1011F0008827B85F39F0B93FCCF386957795679526
:10120000B395D9F73EF490958095709561957F4F91
:101210008F4F9F4F0895E89409C097FB3EF4909537
:101220008095709561957F4F8F4F9F4F9923A9F0BF
:10123000F92F96E9BB279395F6958795779567954E
:10124000B795F111F8CFFAF4BB0F11F460FF1BC092
:101250006F5F7F4F8F4F9F4F16C0882311F096E925
:1012600011C0772321F09EE8872F762F05C06623D3
:1012700071F096E8862F70E060E02AF09A95660F8C
:10128000771F881FDAF7880F9695879597F9089545
:10129000990F0008550FAA0BE0E8FEEF1616170687
:1012A000E807F907C0F012161306E407F50798F0EF
:1012B000621B730B840B950B39F40A2661F0232B08
:1012C000242B252B21F408950A2609F4A140A69584
:1012D0008FEF811D811D089597F99F6780E870E069
:1012E00060E008959FEF80EC089500240A9416169C
:1012F000170618060906089500240A941216130604
:10130000140605060895092E0394000C11F4882391
:1013100052F0BB0F40F4BF2B11F460FF04C06F5FAD
:101320007F4F8F4F9F4F089557FD9058440F551F83
:1013300059F05F3F71F04795880F97FB991F61F057
:101340009F3F79F087950895121613061406551FCE
:10135000F2CF4695F1DF08C0161617061806991F3A
:10136000F1CF86957105610508940895E894BB272F
:1013700066277727CB0197F908950E94480908F45A
:101380008FEF08950E94D5090C9483090E94750976
:1013900038F00E947C0920F0952311F00C946C0920
:1013A0000C94720911240C94B7090E94940970F3EB
:1013B000959FC1F3950F50E0551F629FF001729FFA
:1013C000BB27F00DB11D639FAA27F00DB11DAA1F09
:1013D000649F6627B00DA11D661F829F2227B00D56
:1013E000A11D621F739FB00DA11D621F839FA00DE1
:1013F000611D221F749F3327A00D611D231F849F31
:10140000600D211D822F762F6A2F11249F57504087
:101410009AF0F1F088234AF0EE0FFF1FBB1F661F02
:10142000771F881F91505040A9F79E3F510580F0CB
:101430000C946C090C94B7095F3FE4F3983ED4F325
:10144000869577956795B795F795E7959F5FC1F76F
:10145000FE2B880F911D9695879597F908950E9408
:101460004809880B990B0895EE0FFF1F0590F49122
:10147000E02D0994F894FFCFB100B1000000000402
:1014800004642D221919000000005201B200DF008F
:101490009F011001EE0002010000000000409C4688
:1014A00000606A460060EA4600409C4600B88847F3
:1014B00000606A470050C34700409C47007C1248C8
:1014C0000D0A00686561645F737461727400205076
:1014D000574D3A20002520002073706565643A203E
:1014E000006E616E00696E66006F76660020525075
:0C14F0004D002073746174653A20000008
:107800000C94343C0C94513C0C94513C0C94513CE1
:107810000C94513C0C94513C0C94513C0C94513CB4
:107820000C94513C0C94513C0C94513C0C94513CA4
:107830000C94513C0C94513C0C94513C0C94513C94
:107840000C94513C0C94513C0C94513C0C94513C84
:107850000C94513C0C94513C0C94513C0C94513C74
:107860000C94513C0C94513C11241FBECFEFD8E036
:10787000DEBFCDBF11E0A0E0B1E0ECE9FFE702C060
:1078800005900D92A230B107D9F712E0A2E0B1E065
:1078900001C01D92AD30B107E1F70E942D3D0C945F
:1078A000CC3F0C94003C982F959595959595959582
:1078B000905D8F708A307CF0282F295A8091C0000B
:1078C00085FFFCCF9093C6008091C00085FFFCCF60
:1078D0002093C6000895282F205DF0CF982F809127
:1078E000C00085FFFCCF9093C6000895EF92FF92F1
:1078F0000F931F93EE24FF2487018091C00087FD22
:1079000017C00894E11CF11C011D111D81E4E8164B
:1079100082E4F8068FE0080780E0180770F3E09132
:107920000401F091050109958091C00087FFE9CF1E
:107930008091C6001F910F91FF90EF9008950E94D3
:10794000763C982F8091C00085FFFCCF9093C600B5
:1079500091362CF490330CF09053892F089597555D
:10796000892F08951F930E949F3C182F0E949F3CCF
:107970001295107F810F1F9108951F93182F882350
:1079800021F00E94763C1150E1F71F9108951F935A
:10799000182F0E94763C803249F0809103018F5F5E
:1079A000809303018530C1F01F9108958091C0003C
:1079B00085FFFCCF84E18093C6008091C00085FFE5
:1079C000FCCF1093C6008091C00085FFFCCF80E102
:1079D0008093C6001F910895E0910401F091050184
:1079E00009951F9108950E94763C803241F0809164
:1079F00003018F5F80930301853081F008958091AA
:107A0000C00085FFFCCF84E18093C6008091C00058
:107A100085FFFCCF80E18093C6000895E0910401CA
:107A2000F09105010995089540E951E08823A1F0FE
:107A30002D9A28EE33E0FA013197F1F721503040CA
:107A4000D1F72D9828EE33E0FA013197F1F7215064
:107A50003040D1F7815061F708953F924F925F9285
:107A60006F927F928F929F92AF92BF92CF92DF924E
:107A7000EF92FF920F931F93CF93DF93000080E16B
:107A80008093C4001092C50088E18093C10086E015
:107A90008093C2005098589A259A81E00E94143D24
:107AA00024E1F22E9EE1E92E85E9D82E0FE0C02ECA
:107AB00010E1B12EAA24A394B1E49B2EA6E58A2E50
:107AC000F2E57F2EE0E26E2E79E4572E63E5462E36
:107AD00050E5352E0E94763C8033B1F18133B9F107
:107AE000803409F46FC0813409F476C0823409F41B
:107AF00085C0853409F488C0803531F1823521F1A3
:107B0000813511F1853509F485C0863509F48DC0BC
:107B1000843609F496C0843709F403C1853709F423
:107B200072C1863709F466C0809103018F5F80932C
:107B30000301853079F6E0910401F0910501099582
:107B40000E94763C803351F60E94F33CC3CF0E94E2
:107B5000763C803249F78091C00085FFFCCFF092DF
:107B6000C6008091C00085FFFCCF9092C600809136
:107B7000C00085FFFCCF8092C6008091C00085FFC9
:107B8000FCCF7092C6008091C00085FFFCCF609250
:107B9000C6008091C00085FFFCCF5092C600809146
:107BA000C00085FFFCCF4092C6008091C00085FFD9
:107BB000FCCF3092C6008091C00085FFFCCFB09210
:107BC000C60088CF0E94763C863808F4BDCF0E945C
:107BD000763C0E94F33C7ECF0E94763C803809F4CC
:107BE0009CC0813809F40BC1823809F43CC1883942
:107BF00009F48FC080E00E94C73C6CCF84E10E94F2
:107C0000BD3C0E94F33C66CF85E00E94BD3C0E94D3
:107C1000F33C60CF0E94763C809306010E94763C44
:107C2000809307010E94F33C55CF0E94763C80333D
:107C300009F41DC183E00E94BD3C80E00E94C73C66
:107C400049CF0E94763C809309020E94763C809343
:107C5000080280910C028E7F80930C020E94763C79
:107C6000853409F415C18091080290910902892B8D
:107C700089F000E010E00E94763CF801E85FFE4FDA
:107C800080830F5F1F4F80910802909109020817AF
:107C9000190788F30E94763C803209F045CF809125
:107CA0000C0280FF01C16091060170910701660F0F
:107CB000771F7093070160930601A0910802B091AD
:107CC00009021097C9F0E8E0F1E09B01AD014E0F09
:107CD0005F1FF999FECF32BD21BD819180BDFA9A17
:107CE000F99A2F5F3F4FE417F50799F76A0F7B1F4B
:107CF00070930701609306018091C00085FFFCCF5F
:107D0000F092C6008091C00085FFFCCFB092C60003
:107D1000E1CE83E00E94C73CDDCE82E00E94C73CFA
:107D2000D9CE0E94763C809309020E94763C8093D3
:107D300008028091060190910701880F991F909386
:107D40000701809306010E94763C853409F4A6C0A1
:107D500080910C028E7F80930C020E94763C8032D0
:107D600009F0B8CE8091C00085FFFCCFF092C6002C
:107D7000609108027091090261157105B9F140E046
:107D800050E080910C02A82FA170B82FB27011C0E2
:107D9000BB2309F45CC0E0910601F0910701319624
:107DA000F0930701E09306014F5F5F4F46175707B7
:107DB000E8F4AA2369F3F999FECF209106013091E6
:107DC000070132BD21BDF89A90B58091C00085FFB2
:107DD000FCCF9093C6002F5F3F4F30930701209355
:107DE00006014F5F5F4F4617570718F38091C00099
:107DF00085FDE5CE8091C00085FFF8CFE0CE81E023
:107E00000E94C73C67CE0E94763C803209F08CCE3F
:107E10008091C00085FFFCCFF092C6008091C00029
:107E200085FFFCCFE092C6008091C00085FFFCCFAB
:107E3000D092C6008091C00085FFFCCFC092C600E2
:107E40008091C00085FFFCCFB092C60043CEE09188
:107E50000601F091070194918091C00085FFFCCF4D
:107E60009093C6009CCF80E10E94C73C33CE0E9415
:107E7000763C0E94763C182F0E94763C112309F430
:107E800083C0113009F484C08FE00E94C73C22CE29
:107E900080910C02816080930C02E5CE80910C02EF
:107EA000816080930C0259CF809107018823880F4D
:107EB000880B8A2180930B02809106019091070123
:107EC000880F991F90930701809306018091080203
:107ED00080FF09C080910802909109020196909359
:107EE000090280930802F894F999FECF1127E091D6
:107EF0000601F0910701C8E0D1E08091080290915D
:107F00000902103091F40091570001700130D9F34B
:107F100003E000935700E89500915700017001308D
:107F2000D9F301E100935700E89509901990009169
:107F3000570001700130D9F301E000935700E89534
:107F40001395103498F011270091570001700130FB
:107F5000D9F305E000935700E895009157000170B0
:107F60000130D9F301E100935700E895329602976A
:107F700009F0C7CF103011F00296E5CF112480919F
:107F8000C00085FFB9CEBCCE8EE10E94C73CA2CD19
:0E7F900085E90E94C73C9ECDF894FFCF80008B
:00000001FF
